10001840S E Ze N       AKSU           1954194000000000000000
20002949AY   S    U    ONER           1995126000000000000000
30002848ALEYNA         TILKI          2000081000000000000000
40002978ASI         K  V EYSEL        1894298000000000000000
50001949TA RK aN       TeVETOGLU      1972291000000000000000
50231989  C E      M   YILMAZ         1973113000000000000000
50301949OZKAN          UGUR           1953290000000000000000
63441834MEHMeT         AYDiN          1923302000000000000000
